{"contracts/Lock.sol":{"ColdChainMonitor":{"abi":[{"inputs":[{"internalType":"uint256","name":"_contractId","type":"uint256"},{"internalType":"uint256","name":"_truckNumber","type":"uint256"},{"internalType":"int256","name":"_temperature","type":"int256"}],"stateMutability":"nonpayable","type":"constructor"},{"anonymous":false,"inputs":[{"indexed":false,"internalType":"uint256","name":"contractId","type":"uint256"}],"name":"ContractBroken","type":"event"},{"anonymous":false,"inputs":[{"indexed":false,"internalType":"uint256","name":"contractId","type":"uint256"},{"indexed":false,"internalType":"uint256","name":"truckNumber","type":"uint256"},{"indexed":false,"internalType":"int256","name":"temperature","type":"int256"}],"name":"ContractDeployed","type":"event"},{"inputs":[],"name":"checkCompliance","outputs":[{"internalType":"bool","name":"","type":"bool"}],"stateMutability":"view","type":"function"},{"inputs":[],"name":"contractId","outputs":[{"internalType":"uint256","name":"","type":"uint256"}],"stateMutability":"view","type":"function"},{"inputs":[],"name":"getShipmentData","outputs":[{"internalType":"uint256","name":"","type":"uint256"},{"internalType":"uint256","name":"","type":"uint256"},{"internalType":"int256","name":"","type":"int256"},{"internalType":"bool","name":"","type":"bool"}],"stateMutability":"view","type":"function"},{"inputs":[],"name":"isBroken","outputs":[{"internalType":"bool","name":"","type":"bool"}],"stateMutability":"view","type":"function"},{"inputs":[],"name":"markAsBroken","outputs":[],"stateMutability":"nonpayable","type":"function"},{"inputs":[],"name":"temperature","outputs":[{"internalType":"int256","name":"","type":"int256"}],"stateMutability":"view","type":"function"},{"inputs":[],"name":"truckNumber","outputs":[{"internalType":"uint256","name":"","type":"uint256"}],"stateMutability":"view","type":"function"}],"evm":{"bytecode":{"linkReferences":{},"object":"608060405234801561001057600080fd5b506040516104ef3803806104ef8339818101604052810190610032919061011c565b8260008190555081600181905550806002819055506000600360006101000a81548160ff0219169083151502179055507fea43398870ab782999ca539ecaddeebaca07bc760b8d870cf6a9050bde6d2f9960005460015460025460405161009b9392919061018d565b60405180910390a15050506101c4565b600080fd5b6000819050919050565b6100c3816100b0565b81146100ce57600080fd5b50565b6000815190506100e0816100ba565b92915050565b6000819050919050565b6100f9816100e6565b811461010457600080fd5b50565b600081519050610116816100f0565b92915050565b600080600060608486031215610135576101346100ab565b5b6000610143868287016100d1565b9350506020610154868287016100d1565b925050604061016586828701610107565b9150509250925092565b610178816100b0565b82525050565b610187816100e6565b82525050565b60006060820190506101a2600083018661016f565b6101af602083018561016f565b6101bc604083018461017e565b949350505050565b61031c806101d36000396000f3fe608060405234801561001057600080fd5b506004361061007d5760003560e01c8063734412be1161005b578063734412be146100c85780638291286c146100e9578063adccea1214610107578063bcd58f27146101255761007d565b806305af1fe4146100825780630dfbe1af1461008c5780633258625f146100aa575b600080fd5b61008a610143565b005b610094610199565b6040516100a1919061021e565b60405180910390f35b6100b26101ac565b6040516100bf9190610252565b60405180910390f35b6100d06101b2565b6040516100e09493929190610286565b60405180910390f35b6100f16101df565b6040516100fe9190610252565b60405180910390f35b61010f6101e5565b60405161011c91906102cb565b60405180910390f35b61012d6101eb565b60405161013a919061021e565b60405180910390f35b6001600360006101000a81548160ff0219169083151502179055507f6c75849fb477c06447c789e0f5c09c300240ac5b6d21ccdcbeda1fd3ebbc535e60005460405161018f9190610252565b60405180910390a1565b600360009054906101000a900460ff1681565b60015481565b600080600080600054600154600254600360009054906101000a900460ff16935093509350935090919293565b60005481565b60025481565b6000600360009054906101000a900460ff1615905090565b60008115159050919050565b61021881610203565b82525050565b6000602082019050610233600083018461020f565b92915050565b6000819050919050565b61024c81610239565b82525050565b60006020820190506102676000830184610243565b92915050565b6000819050919050565b6102808161026d565b82525050565b600060808201905061029b6000830187610243565b6102a86020830186610243565b6102b56040830185610277565b6102c2606083018461020f565b95945050505050565b60006020820190506102e06000830184610277565b9291505056fea26469706673582212202984cf61253c80b654d7d36cb0034df5ff99b2816d156713d01a9cd39bb4e9e264736f6c634300081c0033","opcodes":"PUSH1 0x80 PUSH1 0x40 MSTORE CALLVALUE DUP1 ISZERO PUSH2 0x10 JUMPI PUSH1 0x0 DUP1 REVERT JUMPDEST POP PUSH1 0x40 MLOAD PUSH2 0x4EF CODESIZE SUB DUP1 PUSH2 0x4EF DUP4 CODECOPY DUP2 DUP2 ADD PUSH1 0x40 MSTORE DUP2 ADD SWAP1 PUSH2 0x32 SWAP2 SWAP1 PUSH2 0x11C JUMP JUMPDEST DUP3 PUSH1 0x0 DUP2 SWAP1 SSTORE POP DUP2 PUSH1 0x1 DUP2 SWAP1 SSTORE POP DUP1 PUSH1 0x2 DUP2 SWAP1 SSTORE POP PUSH1 0x0 PUSH1 0x3 PUSH1 0x0 PUSH2 0x100 EXP DUP2 SLOAD DUP2 PUSH1 0xFF MUL NOT AND SWAP1 DUP4 ISZERO ISZERO MUL OR SWAP1 SSTORE POP PUSH32 0xEA43398870AB782999CA539ECADDEEBACA07BC760B8D870CF6A9050BDE6D2F99 PUSH1 0x0 SLOAD PUSH1 0x1 SLOAD PUSH1 0x2 SLOAD PUSH1 0x40 MLOAD PUSH2 0x9B SWAP4 SWAP3 SWAP2 SWAP1 PUSH2 0x18D JUMP JUMPDEST PUSH1 0x40 MLOAD DUP1 SWAP2 SUB SWAP1 LOG1 POP POP POP PUSH2 0x1C4 JUMP JUMPDEST PUSH1 0x0 DUP1 REVERT JUMPDEST PUSH1 0x0 DUP2 SWAP1 POP SWAP2 SWAP1 POP JUMP JUMPDEST PUSH2 0xC3 DUP2 PUSH2 0xB0 JUMP JUMPDEST DUP2 EQ PUSH2 0xCE JUMPI PUSH1 0x0 DUP1 REVERT JUMPDEST POP JUMP JUMPDEST PUSH1 0x0 DUP2 MLOAD SWAP1 POP PUSH2 0xE0 DUP2 PUSH2 0xBA JUMP JUMPDEST SWAP3 SWAP2 POP POP JUMP JUMPDEST PUSH1 0x0 DUP2 SWAP1 POP SWAP2 SWAP1 POP JUMP JUMPDEST PUSH2 0xF9 DUP2 PUSH2 0xE6 JUMP JUMPDEST DUP2 EQ PUSH2 0x104 JUMPI PUSH1 0x0 DUP1 REVERT JUMPDEST POP JUMP JUMPDEST PUSH1 0x0 DUP2 MLOAD SWAP1 POP PUSH2 0x116 DUP2 PUSH2 0xF0 JUMP JUMPDEST SWAP3 SWAP2 POP POP JUMP JUMPDEST PUSH1 0x0 DUP1 PUSH1 0x0 PUSH1 0x60 DUP5 DUP7 SUB SLT ISZERO PUSH2 0x135 JUMPI PUSH2 0x134 PUSH2 0xAB JUMP JUMPDEST JUMPDEST PUSH1 0x0 PUSH2 0x143 DUP7 DUP3 DUP8 ADD PUSH2 0xD1 JUMP JUMPDEST SWAP4 POP POP PUSH1 0x20 PUSH2 0x154 DUP7 DUP3 DUP8 ADD PUSH2 0xD1 JUMP JUMPDEST SWAP3 POP POP PUSH1 0x40 PUSH2 0x165 DUP7 DUP3 DUP8 ADD PUSH2 0x107 JUMP JUMPDEST SWAP2 POP POP SWAP3 POP SWAP3 POP SWAP3 JUMP JUMPDEST PUSH2 0x178 DUP2 PUSH2 0xB0 JUMP JUMPDEST DUP3 MSTORE POP POP JUMP JUMPDEST PUSH2 0x187 DUP2 PUSH2 0xE6 JUMP JUMPDEST DUP3 MSTORE POP POP JUMP JUMPDEST PUSH1 0x0 PUSH1 0x60 DUP3 ADD SWAP1 POP PUSH2 0x1A2 PUSH1 0x0 DUP4 ADD DUP7 PUSH2 0x16F JUMP JUMPDEST PUSH2 0x1AF PUSH1 0x20 DUP4 ADD DUP6 PUSH2 0x16F JUMP JUMPDEST PUSH2 0x1BC PUSH1 0x40 DUP4 ADD DUP5 PUSH2 0x17E JUMP JUMPDEST SWAP5 SWAP4 POP POP POP POP JUMP JUMPDEST PUSH2 0x31C DUP1 PUSH2 0x1D3 PUSH1 0x0 CODECOPY PUSH1 0x0 RETURN INVALID PUSH1 0x80 PUSH1 0x40 MSTORE CALLVALUE DUP1 ISZERO PUSH2 0x10 JUMPI PUSH1 0x0 DUP1 REVERT JUMPDEST POP PUSH1 0x4 CALLDATASIZE LT PUSH2 0x7D JUMPI PUSH1 0x0 CALLDATALOAD PUSH1 0xE0 SHR DUP1 PUSH4 0x734412BE GT PUSH2 0x5B JUMPI DUP1 PUSH4 0x734412BE EQ PUSH2 0xC8 JUMPI DUP1 PUSH4 0x8291286C EQ PUSH2 0xE9 JUMPI DUP1 PUSH4 0xADCCEA12 EQ PUSH2 0x107 JUMPI DUP1 PUSH4 0xBCD58F27 EQ PUSH2 0x125 JUMPI PUSH2 0x7D JUMP JUMPDEST DUP1 PUSH4 0x5AF1FE4 EQ PUSH2 0x82 JUMPI DUP1 PUSH4 0xDFBE1AF EQ PUSH2 0x8C JUMPI DUP1 PUSH4 0x3258625F EQ PUSH2 0xAA JUMPI JUMPDEST PUSH1 0x0 DUP1 REVERT JUMPDEST PUSH2 0x8A PUSH2 0x143 JUMP JUMPDEST STOP JUMPDEST PUSH2 0x94 PUSH2 0x199 JUMP JUMPDEST PUSH1 0x40 MLOAD PUSH2 0xA1 SWAP2 SWAP1 PUSH2 0x21E JUMP JUMPDEST PUSH1 0x40 MLOAD DUP1 SWAP2 SUB SWAP1 RETURN JUMPDEST PUSH2 0xB2 PUSH2 0x1AC JUMP JUMPDEST PUSH1 0x40 MLOAD PUSH2 0xBF SWAP2 SWAP1 PUSH2 0x252 JUMP JUMPDEST PUSH1 0x40 MLOAD DUP1 SWAP2 SUB SWAP1 RETURN JUMPDEST PUSH2 0xD0 PUSH2 0x1B2 JUMP JUMPDEST PUSH1 0x40 MLOAD PUSH2 0xE0 SWAP5 SWAP4 SWAP3 SWAP2 SWAP1 PUSH2 0x286 JUMP JUMPDEST PUSH1 0x40 MLOAD DUP1 SWAP2 SUB SWAP1 RETURN JUMPDEST PUSH2 0xF1 PUSH2 0x1DF JUMP JUMPDEST PUSH1 0x40 MLOAD PUSH2 0xFE SWAP2 SWAP1 PUSH2 0x252 JUMP JUMPDEST PUSH1 0x40 MLOAD DUP1 SWAP2 SUB SWAP1 RETURN JUMPDEST PUSH2 0x10F PUSH2 0x1E5 JUMP JUMPDEST PUSH1 0x40 MLOAD PUSH2 0x11C SWAP2 SWAP1 PUSH2 0x2CB JUMP JUMPDEST PUSH1 0x40 MLOAD DUP1 SWAP2 SUB SWAP1 RETURN JUMPDEST PUSH2 0x12D PUSH2 0x1EB JUMP JUMPDEST PUSH1 0x40 MLOAD PUSH2 0x13A SWAP2 SWAP1 PUSH2 0x21E JUMP JUMPDEST PUSH1 0x40 MLOAD DUP1 SWAP2 SUB SWAP1 RETURN JUMPDEST PUSH1 0x1 PUSH1 0x3 PUSH1 0x0 PUSH2 0x100 EXP DUP2 SLOAD DUP2 PUSH1 0xFF MUL NOT AND SWAP1 DUP4 ISZERO ISZERO MUL OR SWAP1 SSTORE POP PUSH32 0x6C75849FB477C06447C789E0F5C09C300240AC5B6D21CCDCBEDA1FD3EBBC535E PUSH1 0x0 SLOAD PUSH1 0x40 MLOAD PUSH2 0x18F SWAP2 SWAP1 PUSH2 0x252 JUMP JUMPDEST PUSH1 0x40 MLOAD DUP1 SWAP2 SUB SWAP1 LOG1 JUMP JUMPDEST PUSH1 0x3 PUSH1 0x0 SWAP1 SLOAD SWAP1 PUSH2 0x100 EXP SWAP1 DIV PUSH1 0xFF AND DUP2 JUMP JUMPDEST PUSH1 0x1 SLOAD DUP2 JUMP JUMPDEST PUSH1 0x0 DUP1 PUSH1 0x0 DUP1 PUSH1 0x0 SLOAD PUSH1 0x1 SLOAD PUSH1 0x2 SLOAD PUSH1 0x3 PUSH1 0x0 SWAP1 SLOAD SWAP1 PUSH2 0x100 EXP SWAP1 DIV PUSH1 0xFF AND SWAP4 POP SWAP4 POP SWAP4 POP SWAP4 POP SWAP1 SWAP2 SWAP3 SWAP4 JUMP JUMPDEST PUSH1 0x0 SLOAD DUP2 JUMP JUMPDEST PUSH1 0x2 SLOAD DUP2 JUMP JUMPDEST PUSH1 0x0 PUSH1 0x3 PUSH1 0x0 SWAP1 SLOAD SWAP1 PUSH2 0x100 EXP SWAP1 DIV PUSH1 0xFF AND ISZERO SWAP1 POP SWAP1 JUMP JUMPDEST PUSH1 0x0 DUP2 ISZERO ISZERO SWAP1 POP SWAP2 SWAP1 POP JUMP JUMPDEST PUSH2 0x218 DUP2 PUSH2 0x203 JUMP JUMPDEST DUP3 MSTORE POP POP JUMP JUMPDEST PUSH1 0x0 PUSH1 0x20 DUP3 ADD SWAP1 POP PUSH2 0x233 PUSH1 0x0 DUP4 ADD DUP5 PUSH2 0x20F JUMP JUMPDEST SWAP3 SWAP2 POP POP JUMP JUMPDEST PUSH1 0x0 DUP2 SWAP1 POP SWAP2 SWAP1 POP JUMP JUMPDEST PUSH2 0x24C DUP2 PUSH2 0x239 JUMP JUMPDEST DUP3 MSTORE POP POP JUMP JUMPDEST PUSH1 0x0 PUSH1 0x20 DUP3 ADD SWAP1 POP PUSH2 0x267 PUSH1 0x0 DUP4 ADD DUP5 PUSH2 0x243 JUMP JUMPDEST SWAP3 SWAP2 POP POP JUMP JUMPDEST PUSH1 0x0 DUP2 SWAP1 POP SWAP2 SWAP1 POP JUMP JUMPDEST PUSH2 0x280 DUP2 PUSH2 0x26D JUMP JUMPDEST DUP3 MSTORE POP POP JUMP JUMPDEST PUSH1 0x0 PUSH1 0x80 DUP3 ADD SWAP1 POP PUSH2 0x29B PUSH1 0x0 DUP4 ADD DUP8 PUSH2 0x243 JUMP JUMPDEST PUSH2 0x2A8 PUSH1 0x20 DUP4 ADD DUP7 PUSH2 0x243 JUMP JUMPDEST PUSH2 0x2B5 PUSH1 0x40 DUP4 ADD DUP6 PUSH2 0x277 JUMP JUMPDEST PUSH2 0x2C2 PUSH1 0x60 DUP4 ADD DUP5 PUSH2 0x20F JUMP JUMPDEST SWAP6 SWAP5 POP POP POP POP POP JUMP JUMPDEST PUSH1 0x0 PUSH1 0x20 DUP3 ADD SWAP1 POP PUSH2 0x2E0 PUSH1 0x0 DUP4 ADD DUP5 PUSH2 0x277 JUMP JUMPDEST SWAP3 SWAP2 POP POP JUMP INVALID LOG2 PUSH5 0x6970667358 0x22 SLT KECCAK256 0x29 DUP5 0xCF PUSH2 0x253C DUP1 0xB6 SLOAD 0xD7 0xD3 PUSH13 0xB0034DF5FF99B2816D156713D0 BYTE SWAP13 0xD3 SWAP12 0xB4 0xE9 0xE2 PUSH5 0x736F6C6343 STOP ADDMOD SHR STOP CALLER "},"methodIdentifiers":{"checkCompliance()":"bcd58f27","contractId()":"8291286c","getShipmentData()":"734412be","isBroken()":"0dfbe1af","markAsBroken()":"05af1fe4","temperature()":"adccea12","truckNumber()":"3258625f"}}}}}