{
  "_format": "hh-sol-artifact-1",
  "contractName": "ColdChainMonitor",
  "sourceName": "contracts/Lock.sol",
  "abi": [
    {
      "inputs": [
        {
          "internalType": "uint256",
          "name": "_contractId",
          "type": "uint256"
        },
        {
          "internalType": "uint256",
          "name": "_truckNumber",
          "type": "uint256"
        },
        {
          "internalType": "int256",
          "name": "_temperature",
          "type": "int256"
        }
      ],
      "stateMutability": "nonpayable",
      "type": "constructor"
    },
    {
      "anonymous": false,
      "inputs": [
        {
          "indexed": false,
          "internalType": "uint256",
          "name": "contractId",
          "type": "uint256"
        }
      ],
      "name": "ContractBroken",
      "type": "event"
    },
    {
      "anonymous": false,
      "inputs": [
        {
          "indexed": false,
          "internalType": "uint256",
          "name": "contractId",
          "type": "uint256"
        },
        {
          "indexed": false,
          "internalType": "uint256",
          "name": "truckNumber",
          "type": "uint256"
        },
        {
          "indexed": false,
          "internalType": "int256",
          "name": "temperature",
          "type": "int256"
        }
      ],
      "name": "ContractDeployed",
      "type": "event"
    },
    {
      "inputs": [],
      "name": "checkCompliance",
      "outputs": [
        {
          "internalType": "bool",
          "name": "",
          "type": "bool"
        }
      ],
      "stateMutability": "view",
      "type": "function"
    },
    {
      "inputs": [],
      "name": "contractId",
      "outputs": [
        {
          "internalType": "uint256",
          "name": "",
          "type": "uint256"
        }
      ],
      "stateMutability": "view",
      "type": "function"
    },
    {
      "inputs": [],
      "name": "getShipmentData",
      "outputs": [
        {
          "internalType": "uint256",
          "name": "",
          "type": "uint256"
        },
        {
          "internalType": "uint256",
          "name": "",
          "type": "uint256"
        },
        {
          "internalType": "int256",
          "name": "",
          "type": "int256"
        },
        {
          "internalType": "bool",
          "name": "",
          "type": "bool"
        }
      ],
      "stateMutability": "view",
      "type": "function"
    },
    {
      "inputs": [],
      "name": "isBroken",
      "outputs": [
        {
          "internalType": "bool",
          "name": "",
          "type": "bool"
        }
      ],
      "stateMutability": "view",
      "type": "function"
    },
    {
      "inputs": [],
      "name": "markAsBroken",
      "outputs": [],
      "stateMutability": "nonpayable",
      "type": "function"
    },
    {
      "inputs": [],
      "name": "temperature",
      "outputs": [
        {
          "internalType": "int256",
          "name": "",
          "type": "int256"
        }
      ],
      "stateMutability": "view",
      "type": "function"
    },
    {
      "inputs": [],
      "name": "truckNumber",
      "outputs": [
        {
          "internalType": "uint256",
          "name": "",
          "type": "uint256"
        }
      ],
      "stateMutability": "view",
      "type": "function"
    }
  ],
  "bytecode": "0x608060405234801561001057600080fd5b506040516104ef3803806104ef8339818101604052810190610032919061011c565b8260008190555081600181905550806002819055506000600360006101000a81548160ff0219169083151502179055507fea43398870ab782999ca539ecaddeebaca07bc760b8d870cf6a9050bde6d2f9960005460015460025460405161009b9392919061018d565b60405180910390a15050506101c4565b600080fd5b6000819050919050565b6100c3816100b0565b81146100ce57600080fd5b50565b6000815190506100e0816100ba565b92915050565b6000819050919050565b6100f9816100e6565b811461010457600080fd5b50565b600081519050610116816100f0565b92915050565b600080600060608486031215610135576101346100ab565b5b6000610143868287016100d1565b9350506020610154868287016100d1565b925050604061016586828701610107565b9150509250925092565b610178816100b0565b82525050565b610187816100e6565b82525050565b60006060820190506101a2600083018661016f565b6101af602083018561016f565b6101bc604083018461017e565b949350505050565b61031c806101d36000396000f3fe608060405234801561001057600080fd5b506004361061007d5760003560e01c8063734412be1161005b578063734412be146100c85780638291286c146100e9578063adccea1214610107578063bcd58f27146101255761007d565b806305af1fe4146100825780630dfbe1af1461008c5780633258625f146100aa575b600080fd5b61008a610143565b005b610094610199565b6040516100a1919061021e565b60405180910390f35b6100b26101ac565b6040516100bf9190610252565b60405180910390f35b6100d06101b2565b6040516100e09493929190610286565b60405180910390f35b6100f16101df565b6040516100fe9190610252565b60405180910390f35b61010f6101e5565b60405161011c91906102cb565b60405180910390f35b61012d6101eb565b60405161013a919061021e565b60405180910390f35b6001600360006101000a81548160ff0219169083151502179055507f6c75849fb477c06447c789e0f5c09c300240ac5b6d21ccdcbeda1fd3ebbc535e60005460405161018f9190610252565b60405180910390a1565b600360009054906101000a900460ff1681565b60015481565b600080600080600054600154600254600360009054906101000a900460ff16935093509350935090919293565b60005481565b60025481565b6000600360009054906101000a900460ff1615905090565b60008115159050919050565b61021881610203565b82525050565b6000602082019050610233600083018461020f565b92915050565b6000819050919050565b61024c81610239565b82525050565b60006020820190506102676000830184610243565b92915050565b6000819050919050565b6102808161026d565b82525050565b600060808201905061029b6000830187610243565b6102a86020830186610243565b6102b56040830185610277565b6102c2606083018461020f565b95945050505050565b60006020820190506102e06000830184610277565b9291505056fea26469706673582212202984cf61253c80b654d7d36cb0034df5ff99b2816d156713d01a9cd39bb4e9e264736f6c634300081c0033",
  "linkReferences": {},
  "deployedLinkReferences": {}
}